{
  "contractName": "Blockchain",
  "abi": [
    {
      "inputs": [],
      "payable": false,
      "stateMutability": "nonpayable",
      "type": "constructor"
    },
    {
      "anonymous": false,
      "inputs": [
        {
          "indexed": true,
          "internalType": "uint32",
          "name": "_candidateId",
          "type": "uint32"
        }
      ],
      "name": "votedEvent",
      "type": "event"
    },
    {
      "constant": true,
      "inputs": [
        {
          "internalType": "uint256",
          "name": "",
          "type": "uint256"
        }
      ],
      "name": "candidates",
      "outputs": [
        {
          "internalType": "uint8",
          "name": "id",
          "type": "uint8"
        },
        {
          "internalType": "string",
          "name": "name",
          "type": "string"
        },
        {
          "internalType": "uint32",
          "name": "voteCount",
          "type": "uint32"
        }
      ],
      "payable": false,
      "stateMutability": "view",
      "type": "function"
    },
    {
      "constant": true,
      "inputs": [],
      "name": "candidatesCount",
      "outputs": [
        {
          "internalType": "uint8",
          "name": "",
          "type": "uint8"
        }
      ],
      "payable": false,
      "stateMutability": "view",
      "type": "function"
    },
    {
      "constant": true,
      "inputs": [
        {
          "internalType": "address",
          "name": "",
          "type": "address"
        }
      ],
      "name": "voters",
      "outputs": [
        {
          "internalType": "bool",
          "name": "",
          "type": "bool"
        }
      ],
      "payable": false,
      "stateMutability": "view",
      "type": "function"
    },
    {
      "constant": false,
      "inputs": [
        {
          "internalType": "uint8",
          "name": "_candidateId",
          "type": "uint8"
        }
      ],
      "name": "vote",
      "outputs": [],
      "payable": false,
      "stateMutability": "nonpayable",
      "type": "function"
    }
  ],
  "bytecode": "0x608060405234801561001057600080fd5b506100556040518060400160405280600381526020017f455448000000000000000000000000000000000000000000000000000000000081525061009e60201b60201c565b6100996040518060400160405280600381526020017f425443000000000000000000000000000000000000000000000000000000000081525061009e60201b60201c565b610239565b6002600081819054906101000a900460ff168092919060010191906101000a81548160ff021916908360ff160217905550506040518060600160405280600260009054906101000a900460ff1660ff168152602001828152602001600063ffffffff1681525060016000600260009054906101000a900460ff1660ff16815260200190815260200160002060008201518160000160006101000a81548160ff021916908360ff1602179055506020820151816001019080519060200190610166929190610194565b5060408201518160020160006101000a81548163ffffffff021916908363ffffffff16021790555090505050565b828054600181600116156101000203166002900490600052602060002090601f016020900481019282601f106101d557805160ff1916838001178555610203565b82800160010185558215610203579182015b828111156102025782518255916020019190600101906101e7565b5b5090506102109190610214565b5090565b61023691905b8082111561023257600081600090555060010161021a565b5090565b90565b610473806102486000396000f3fe608060405234801561001057600080fd5b506004361061004c5760003560e01c80632d35a8a2146100515780633477ee2e14610075578063a3ec138d1461013c578063b3f98adc14610198575b600080fd5b6100596101c9565b604051808260ff1660ff16815260200191505060405180910390f35b6100a16004803603602081101561008b57600080fd5b81019080803590602001909291905050506101dc565b604051808460ff1660ff168152602001806020018363ffffffff1663ffffffff168152602001828103825284818151815260200191508051906020019080838360005b838110156100ff5780820151818401526020810190506100e4565b50505050905090810190601f16801561012c5780820380516001836020036101000a031916815260200191505b5094505050505060405180910390f35b61017e6004803603602081101561015257600080fd5b81019080803573ffffffffffffffffffffffffffffffffffffffff1690602001909291905050506102bb565b604051808215151515815260200191505060405180910390f35b6101c7600480360360208110156101ae57600080fd5b81019080803560ff1690602001909291905050506102db565b005b600260009054906101000a900460ff1681565b60016020528060005260406000206000915090508060000160009054906101000a900460ff1690806001018054600181600116156101000203166002900480601f01602080910402602001604051908101604052809291908181526020018280546001816001161561010002031660029004801561029b5780601f106102705761010080835404028352916020019161029b565b820191906000526020600020905b81548152906001019060200180831161027e57829003601f168201915b5050505050908060020160009054906101000a900463ffffffff16905083565b60006020528060005260406000206000915054906101000a900460ff1681565b6000803373ffffffffffffffffffffffffffffffffffffffff1673ffffffffffffffffffffffffffffffffffffffff16815260200190815260200160002060009054906101000a900460ff161561033157600080fd5b60008160ff161180156103595750600260009054906101000a900460ff1660ff168160ff1611155b61036257600080fd5b60016000803373ffffffffffffffffffffffffffffffffffffffff1673ffffffffffffffffffffffffffffffffffffffff16815260200190815260200160002060006101000a81548160ff021916908315150217905550600160008260ff168152602001908152602001600020600201600081819054906101000a900463ffffffff168092919060010191906101000a81548163ffffffff021916908363ffffffff160217905550508060ff167fe5c1922762e55b2cee904182d7e90af74758b22501a9a9af54f7eae1344a2a8860405160405180910390a25056fea265627a7a72315820895bbbe37530c1243475cc166f160cd7f9501b9bdc0d4a754557075ab7135f4764736f6c63430005100032",
  "source": "// SPDX-License-Identifier: GPL-3.0\r\npragma solidity >=0.5.16;\r\n\r\ncontract Blockchain{\r\n    struct Candidate{\r\n        uint8 id;\r\n        string name;\r\n        uint32 voteCount;\r\n    }\r\n    \r\n    // Store accounts that have voted\r\n    mapping(address => bool) public voters;\r\n    // Store Candidates\r\n    // Fetch Candidate\r\n    mapping(uint => Candidate) public candidates;\r\n    // Store Candidates Count\r\n    uint8 public candidatesCount; //is it to calculate\r\n    \r\n     // voted event\r\n    event votedEvent (\r\n        uint32 indexed _candidateId\r\n    );\r\n\r\n    constructor () public {  //bu public versiyon hatasından dolayı oldu \r\n        addCandidate(\"ETH\");\r\n        addCandidate(\"BTC\");\r\n    }\r\n    \r\n    function addCandidate (string memory _name) private {\r\n        candidatesCount ++;\r\n        candidates[candidatesCount] = Candidate(candidatesCount, _name, 0);\r\n    }\r\n\r\n    function vote (uint8 _candidateId) public {\r\n        // require that they haven't voted before\r\n        require(!voters[msg.sender]);\r\n\r\n        // require a valid candidate\r\n        require(_candidateId > 0 && _candidateId <= candidatesCount);\r\n\r\n        // record that voter has voted\r\n        voters[msg.sender] = true;\r\n\r\n        // update candidate vote Count\r\n        candidates[_candidateId].voteCount ++;\r\n\r\n        // trigger voted event\r\n        emit votedEvent(_candidateId);\r\n    }\r\n    \r\n}",
  "sourcePath": "C:/Users/ziya/AndroidStudioProjects/Blockchain/contracts/Blockchain.sol",
  "compiler": {
    "name": "solc",
    "version": "0.5.16+commit.9c3226ce.Emscripten.clang"
  },
  "schemaVersion": "3.3.3",
  "updatedAt": "2021-01-17T11:52:36.144Z",
  "networkType": "ethereum",
  "devdoc": {
    "methods": {}
  },
  "userdoc": {
    "methods": {}
  }
}